{
  "contractName": "Voting",
  "abi": [
    {
      "inputs": [],
      "payable": false,
      "stateMutability": "nonpayable",
      "type": "constructor"
    },
    {
      "constant": true,
      "inputs": [
        {
          "internalType": "uint256",
          "name": "",
          "type": "uint256"
        }
      ],
      "name": "candidates",
      "outputs": [
        {
          "internalType": "uint256",
          "name": "id",
          "type": "uint256"
        },
        {
          "internalType": "string",
          "name": "name",
          "type": "string"
        },
        {
          "internalType": "uint256",
          "name": "voteCount",
          "type": "uint256"
        }
      ],
      "payable": false,
      "stateMutability": "view",
      "type": "function"
    },
    {
      "constant": true,
      "inputs": [],
      "name": "isVotingOpen",
      "outputs": [
        {
          "internalType": "bool",
          "name": "",
          "type": "bool"
        }
      ],
      "payable": false,
      "stateMutability": "view",
      "type": "function"
    },
    {
      "constant": false,
      "inputs": [
        {
          "internalType": "bool",
          "name": "state",
          "type": "bool"
        }
      ],
      "name": "setVotingState",
      "outputs": [],
      "payable": false,
      "stateMutability": "nonpayable",
      "type": "function"
    },
    {
      "constant": false,
      "inputs": [
        {
          "internalType": "uint256",
          "name": "candidateId",
          "type": "uint256"
        }
      ],
      "name": "vote",
      "outputs": [],
      "payable": false,
      "stateMutability": "nonpayable",
      "type": "function"
    },
    {
      "constant": true,
      "inputs": [
        {
          "internalType": "uint256",
          "name": "candidateId",
          "type": "uint256"
        }
      ],
      "name": "getVoteCount",
      "outputs": [
        {
          "internalType": "uint256",
          "name": "",
          "type": "uint256"
        }
      ],
      "payable": false,
      "stateMutability": "view",
      "type": "function"
    }
  ],
  "bytecode": "0x608060405234801561001057600080fd5b5033600360006101000a81548173ffffffffffffffffffffffffffffffffffffffff021916908373ffffffffffffffffffffffffffffffffffffffff1602179055506000600160006101000a81548160ff0219169083151502179055506040518060600160405280600181526020016040518060400160405280600b81526020017f43616e646964617465203100000000000000000000000000000000000000000081525081526020016000815250600080600181526020019081526020016000206000820151816000015560208201518160010190805190602001906100f89291906101a4565b50604082015181600201559050506040518060600160405280600281526020016040518060400160405280600b81526020017f43616e646964617465203200000000000000000000000000000000000000000081525081526020016000815250600080600281526020019081526020016000206000820151816000015560208201518160010190805190602001906101919291906101a4565b5060408201518160020155905050610249565b828054600181600116156101000203166002900490600052602060002090601f016020900481019282601f106101e557805160ff1916838001178555610213565b82800160010185558215610213579182015b828111156102125782518255916020019190600101906101f7565b5b5090506102209190610224565b5090565b61024691905b8082111561024257600081600090555060010161022a565b5090565b90565b6106cd806102586000396000f3fe608060405234801561001057600080fd5b50600436106100575760003560e01c80630121b93f1461005c5780633477ee2e1461008a578063b2c2f2e81461013f578063bfd41f3b14610181578063fa7f1bae146101b1575b600080fd5b6100886004803603602081101561007257600080fd5b81019080803590602001909291905050506101d3565b005b6100b6600480360360208110156100a057600080fd5b8101908080359060200190929190505050610412565b6040518084815260200180602001838152602001828103825284818151815260200191508051906020019080838360005b838110156101025780820151818401526020810190506100e7565b50505050905090810190601f16801561012f5780820380516001836020036101000a031916815260200191505b5094505050505060405180910390f35b61016b6004803603602081101561015557600080fd5b81019080803590602001909291905050506104d4565b6040518082815260200191505060405180910390f35b6101af6004803603602081101561019757600080fd5b81019080803515159060200190929190505050610580565b005b6101b9610660565b604051808215151515815260200191505060405180910390f35b60011515600160009054906101000a900460ff1615151461025c576040517f08c379a00000000000000000000000000000000000000000000000000000000081526004018080602001828103825260118152602001807f566f74696e6720697320636c6f7365642e00000000000000000000000000000081525060200191505060405180910390fd5b80600080600083815260200190815260200160002060000154116102e8576040517f08c379a00000000000000000000000000000000000000000000000000000000081526004018080602001828103825260158152602001807f496e76616c69642063616e6469646174652069642e000000000000000000000081525060200191505060405180910390fd5b60001515600260003373ffffffffffffffffffffffffffffffffffffffff1673ffffffffffffffffffffffffffffffffffffffff16815260200190815260200160002060009054906101000a900460ff16151514610391576040517f08c379a00000000000000000000000000000000000000000000000000000000081526004018080602001828103825260258152602001806106746025913960400191505060405180910390fd5b600080838152602001908152602001600020600201600081548092919060010191905055506001600260003373ffffffffffffffffffffffffffffffffffffffff1673ffffffffffffffffffffffffffffffffffffffff16815260200190815260200160002060006101000a81548160ff0219169083151502179055505050565b6000602052806000526040600020600091509050806000015490806001018054600181600116156101000203166002900480601f0160208091040260200160405190810160405280929190818152602001828054600181600116156101000203166002900480156104c45780601f10610499576101008083540402835291602001916104c4565b820191906000526020600020905b8154815290600101906020018083116104a757829003601f168201915b5050505050908060020154905083565b60008160008060008381526020019081526020016000206000015411610562576040517f08c379a00000000000000000000000000000000000000000000000000000000081526004018080602001828103825260158152602001807f496e76616c69642063616e6469646174652069642e000000000000000000000081525060200191505060405180910390fd5b60008084815260200190815260200160002060020154915050919050565b600360009054906101000a900473ffffffffffffffffffffffffffffffffffffffff1673ffffffffffffffffffffffffffffffffffffffff163373ffffffffffffffffffffffffffffffffffffffff1614610643576040517f08c379a00000000000000000000000000000000000000000000000000000000081526004018080602001828103825260168152602001807f4f7065726174696f6e206e6f7420616c6c6f7765642e0000000000000000000081525060200191505060405180910390fd5b80600160006101000a81548160ff02191690831515021790555050565b600160009054906101000a900460ff168156fe4f6e6c79206f6e6520766f746520706572206164647265737320697320616c6c6f7765642ea265627a7a72315820c0b54acbfa463ee96f337589df125b7ba10c63fb0a03be1794db0dea2200cc1064736f6c63430005100032",
  "source": "// SPDX-License-Identifier: GPL\npragma solidity ^0.5.0;\n\ncontract Voting {\n    mapping(uint256 => Candidate) public candidates;\n    bool public isVotingOpen;\n    mapping(address => bool) private voters;\n    address private owner;\n\n    /// candidate data model\n    struct Candidate {\n        uint256 id;\n        string name;\n        uint256 voteCount;\n    }\n\n    constructor() public {\n        // set contract owner\n        owner = msg.sender;\n\n        // voting starts inactive\n        isVotingOpen = false;\n\n        // demo candidates\n        candidates[1] = Candidate(1, \"Candidate 1\", 0);\n        candidates[2] = Candidate(2, \"Candidate 2\", 0);\n    }\n\n    modifier onlyOwner {\n        require(msg.sender == owner, \"Operation not allowed.\");\n        _;\n    }\n\n    modifier uniqueVote {\n        require(\n            voters[msg.sender] == false,\n            \"Only one vote per address is allowed.\"\n        );\n        _;\n    }\n\n    modifier votingOpen {\n        require(isVotingOpen == true, \"Voting is closed.\");\n        _;\n    }\n\n    modifier validCandidate(uint256 id) {\n        require(candidates[id].id > 0, \"Invalid candidate id.\");\n        _;\n    }\n\n    /// set voting state\n    function setVotingState(bool state) external onlyOwner {\n        isVotingOpen = state;\n    }\n\n    /// vote public\n    function vote(uint256 candidateId)\n        external\n        votingOpen\n        validCandidate(candidateId)\n        uniqueVote\n    {\n        candidates[candidateId].voteCount++;\n        voters[msg.sender] = true;\n    }\n\n    /// get vote count for specified candidate\n    function getVoteCount(uint256 candidateId)\n        external\n        view\n        validCandidate(candidateId)\n        returns (uint256)\n    {\n        return candidates[candidateId].voteCount;\n    }\n}\n",
  "sourcePath": "/home/sevic69/Documents/projects/ethereum/eth-vue-voting-app/contracts/Voting.sol",
  "compiler": {
    "name": "solc",
    "version": "0.5.16+commit.9c3226ce.Emscripten.clang"
  },
  "schemaVersion": "3.2.5",
  "updatedAt": "2020-10-07T01:21:13.072Z",
  "networkType": "ethereum",
  "devdoc": {
    "methods": {}
  },
  "userdoc": {
    "methods": {
      "getVoteCount(uint256)": {
        "notice": "get vote count for specified candidate"
      },
      "setVotingState(bool)": {
        "notice": "set voting state"
      },
      "vote(uint256)": {
        "notice": "vote public"
      }
    }
  }
}